S0370000626F6F746C6F616465722D73746F726167652D696E7465726E616C2D73696E676C652D3531326B2D636F6D62696E65642E73333799
S3150FE100000A4880F308880A4800470000000000000C
S3150FE1001000000000000000000000000000000000EA
S3150FE1002000000000000000001C06E10F9004002014
S3150FE100300506E10F10B57A497A4A01E021B1491E69
S3150FE100401369DC07FAD411B96FF0020010BD5060E5
S3150FE10050012010601169480702D54FF0FF3010BD3E
S3150FE10060002010BD2DE9F041044610460B46002253
S3150FE10070002B41D06FF001056FF002086849694F17
S3150FE10080A8B994469C4537D254F8040BF8600CF1A5
S3150FE10090010C08203860084601E080B3401E3E6936
S3150FE100A0F607FAD458B338698007EBD523E0EFF3B7
S3150FE100B0108072B694460FE03E6906F01906102ECF
S3150FE100C008BF3E603E693607F6D554F8046BFE600D
S3150FE100D00CF1010C10263E609C45F3D318B962B6BC
S3150FE100E001E021B1491E3869C307FAD401B9424685
S3150FE100F03869810700D52A461046BDE8F0814246A8
S3150FE10100FAE72DE9F84F454CA56BADB205B10125DF
S3150FE1011041F67136A6634FEA92083F4E3768366865
S3150FE10120266846F0010626604FF0000906468A4624
S3150FE101309B46002013E0C7F30A07C7F50067BF0820
S3150FE10140A8EB0900B84238BF07465A46394650462A
S3150FE10150FFF788FF010010D1B9440AEB870AC145C1
S3150FE101600BD206EB89073846FFF764FF0100E2D0B1
S3150FE10170216849084900216003E0226852085200CC
S3150FE101802260EDB20DB10021A163BDE8F28F70B52A
S3150FE10190224B23490246986B80B200B1012041F60A
S3150FE101A071349C631C4C256824681E6846F0010671
S3150FE101B01E609A6001225A605C69620704D500F0FD
S3150FE101C021F84FF0FF3070BD02225A605A69D40709
S3150FE101D010D5002918BF491EF8D10BE0002919687F
S3150FE101E004D100F010F86FF0020070BD00F00BF8CB
S3150FE101F0002070BD5A699407F0D500F003F86FF04F
S3150FE10200010070BD196849084900196008B100205D
S3150FE1021098637047002374E704300E4008000E40E0
S3150FE10220809698000C000E4010B53B4C41F67131AB
S3150FE10230A1632268520852002260FFF7A8FF2268E5
S3150FE1024052080146520022600020A063481E8041F9
S3150FE10250C00F10BD38B58308800705D54FF6FF727D
S3150FE1026042EA0142009204E041F07F4141F47F010D
S3150FE10270009141F67130284CA063042225686D0880
S3150FE102806D00256069469800FFF7C4FF22685208A2
S3150FE10290520022600021A16332BD2DE9F0410546EE
S3150FE102A08846144605F0010104F00100014330D1FF
S3150FE102B06CB3AA0707D538F8021B2846FFF7CAFF22
S3150FE102C038BBAD1CA41E042C1AD3134E41F6713064
S3150FE102D0B063A7083168490849003160BF003A4663
S3150FE102E041462846FFF796FF3168490849003160D4
S3150FE102F000227908B26308EB41087D19E41B40B986
S3150FE103002CB1B8F800102846FFF7A4FF08B9012071
S3150FE1031000E00020BDE8F08108000E40F8B5314855
S3150FE1032001680869CD68846AAC4225D305F5605149
S3150FE103308C4221D2641B04192B4E2168B1421BD189
S3150FE10340E1682A4F4FF0FF3200F056F8B84213D169
S3150FE1035000F040F80ED20268B2420BD18168A26872
S3150FE10360914207D3C1684FF0FF32284600F044F8B7
S3150FE10370B84201D00120F2BD0020F2BDF8B519480F
S3150FE1038000680569C468AE6A361BAE19274604E0F4
S3150FE103903846FFF749FF07F50067F26810198742FC
S3150FE103A0F6D329462046FFF778FF90B100F012F811
S3150FE103B00CD202680C498A4208D1C1684FF0FF326C
S3150FE103C0204600F019F80949884201D00020F2BD14
S3150FE103D00120F2BD0648074900680918B1F5605FCB
S3150FE103E0704700002800E10F07B0CD5EE320BBDECA
S3150FE103F02808E10F00F81EF030B50A4B1C6844F0EF
S3150FE1040040041C600125084B1D609A605D6002E0A7
S3150FE1041010F8014B9C610A46511E002AF8D1D869A2
S3150FE1042030BD00BFB0400E4000C0014080B51A4854
S3150FE104301A4A01681A4811604023C36001684A03EA
S3150FE10440FCD4FFF79BFF0028FBD040F2022000F01F
S3150FE1045031F8002002BD10B5124C1348206000F0B0
S3150FE1046049F812490A68B2F5803F0AD040F20921EC
S3150FE10470884218BFB0F5007F03D1FFF74FFF00B1F8
S3150FE1048010BD0B482060016881F3088881F3098864
S3150FE1049040688047FEE70000880000208C000020BE
S3150FE104A004300E4008ED00E00000E10F04500E406D
S3150FE104B00008E10F4FF0005108804FF20F0048801E
S3150FE104C00948016821F4E06141F480610160BFF3FD
S3150FE104D04F8F064906480A6802F4E06202430A6052
S3150FE104E0BFF34F8F00BFFDE700500E400CED00E06C
S3150FE104F00400FA054FF000514FF20F02488890427F
S3150FE1050001D108887047002804BF0888012802D165
S3150FE1051040F2022070474FF40070704730B450F844
S3150FE10520041B79B10268436802440830DC0744BF13
S3150FE10530A9F10104E31852F8045B43F8045B091FC0
S3150FE10540F9D1ECE730BC704710B50749794418315A
S3150FE10550064C7C44163404E00A68081D11448847AA
S3150FE105600146A142F8D110BD2C0000003C0000006D
S3150FE105704EF68851CEF20001086840F4700008602B
S3150FE10580BFF34F8FBFF36F8F4FF00070E1EE100A9D
S3150FE105907047000089FFFFFF100000009400000084
S3150FE105A08000002000000000044905480860054866
S3150FE105B0026842F4700202607047000008ED00E045
S3150FE105C02C00E10F88ED00E00120C046002801D0A4
S3150FE105D0FFF7BAFFAFF300800020AFF30080FFF71C
S3150FE105E025FF00F000F800F001B800000746384695
S3150FE105F000F002F8FBE7000020210903263118205D
S3150FE10600ABBEF9E7024880470248804702480047F8
S3150FE10610A905E10F5704E10F4106E10FAD1007B050
S3150FE1062001000000000209010008E10F008000004F
S3150FE1063000F0490200800000C0EA2101C0EA210171
S3110FE10640AFF30080FFF794FFFFF7BEFF5A
S3150FE10800801000209134E10FAF1BE10FC51CE10F02
S3150FE10810B71BE10F3B1EE10FBF1FE10F0000000009
S3150FE108200000000000000000E409E10FDF1FE10F07
S3150FE108301320E10F180AE10FBB2FE10F3F31E10F53
S3150FE108408000000000000000000000000000000032
S3150FE1085000000000000000000000000000000000A2
S3150FE108600000000000000000000000000000000092
S3150FE108700000000000000000000000000000000082
S3150FE10880454652333200000001000000010000002E
S3150FE108900040040000B0030000000000000000006B
S3150FE108A00000000000000000000000000000000052
S3150FE108B00000000000000000000000000000000042
S3150FE108C00000000000000000000000000000000032
S3150FE108D00000000000000000000000000000000022
S3150FE108E00000000000000000000000000000000012
S3150FE108F00000000000000000000000000000000002
S3150FE1090000000000000000000000000000000000F1
S3150FE1091000000000000000000000000000000000E1
S3150FE1092000000000000000000000000000000000D1
S3150FE1093000000000000000000000000000000000C1
S3150FE1094000000000000000000000000000000000B1
S3150FE109500000000000000000200000000001000080
S3150FE10960050C0000FFFFFFFFFFFFFFFFFFFFFFFF8C
S3150FE109700000000000000000000000000100000080
S3150FE10980FFFFFFFF512563FCC2CAB9F3849E17A788
S3150FE10990ADFAE6BCFFFFFFFFFFFFFFFF0000000020
S3150FE109A0FFFFFFFF96C298D84539A1F4A033EB2D8F
S3150FE109B0817D0377F240A463E5E6BCF847422CE17B
S3150FE109C0F2D1176BF551BF376840B6CBCE5E316BBF
S3150FE109D05733CE2B169E0F7C4AEBE78E9B7F1AFE83
S3150FE109E0E242E34F07B0CD5E0100000002000901CC
S3150FE109F0B82C00000000000000000800F000010024
S3150FE10A003D22E10F4122E10F2D0FE10F431BE10FD4
S3150FE10A10751BE10F580AE10F13B779FAC925DDB74F
S3150FE10A20ADF3CFE0F1B614B801010000020000000A
S3150FE10A30B434E10F4000000002000901000000009C
S3150FE10A4000000000000000000000000000000000B0
S3150FE10A50000000000000000000010000350BE10F6F
S3150FE10A608B0BE10FB90BE10FD70BE10F1D0CE10F6B
S3150FE10A70FF32E10FED31E10FCD33E10F370CE10F2E
S3150FE10A805F0CE10FB90CE10F6510E10F6F10E10F8C
S3150FE10A908D10E10FC310E10F02487047024870470E
S3150FE10AA0024870474A43E00F6A43E00F8642E00F80
S3150FE10AB04FF48820704718B5DFB04FF4BE72694620
S3150FE10AC0002000F0B8F80021684600F0C8F840F2BF
S3150FE10AD001218842F7D040F20322904240F20544C9
S3150FE10AE023D19DF8000000F0030002281DD09DF8E8
S3150FE10AF0000081070FD50E480268019993688B4272
S3150FE10B0009D25B9800F03EF978B100F095F90999B1
S3150FE10B1000F083FA09E09DF80000C10705D50399B6
S3150FE10B205B9800F057F900B10024204660B010BD84
S3150FE10B302808E10F10B504000CD04FF48030206087
S3150FE10B4000219C486160027822724068E06000F003
S3150FE10B5085FA206110BD78B5044604F5B6760D46E3
S3150FE10B60A1B0B1683068802301AA00F025F800959D
S3150FE10B70802301AA214604F1280000F04BFCF06026
S3150FE10B80B0688030B06022B070BD0246002940F2F5
S3150FE10B90014000D1704710B5864B5C68A24203D382
S3150FE10BA000220A604A6010BD03EBC20082680A6048
S3150FE10BB0C0684860002010BD38B500F021F800D3B9
S3150FE10BC026E000F017F800D225E09B68C018BDE8D3
S3150FE10BD0384000F04CBA38B500F012F800D317E000
S3150FE10BE000F008F800D216E09B68C018BDE838405F
S3150FE10BF000F04CBA03EBC4031518DC68AC4270473E
S3150FE10C000446084611461A466A4B5D68AC42704780
S3150FE10C1040F2014032BD40F2024032BD65494A68B9
S3150FE10C20904202D340F20140704701EBC000C16828
S3150FE10C30806800F046BA3EB504460D461146284691
S3150FE10C4000F07FFF50B969462046FFF79EFF28B9AE
S3150FE10C5005F5B67004600199416000203EBD38B5D7
S3150FE10C6084B004460D466846102100F0A1FF0295B7
S3150FE10C7004F5B875A86888B96868296888420DD2FD
S3150FE10C8069462046FFF767FFA86800281CBF41F2B7
S3150FE10C90070188420BD140F2012008E0A078002835
S3150FE10CA01DBFE078002840F2032040F2022005B094
S3150FE10CB030BD012018707047F0B585B004460D467A
S3150FE10CC0164600278DF800700DF104004AA1102297
S3150FE10CD000F072FFCDF804D037601C21284600F0F2
S3150FE10CE067FF04F5B8779DF8000080B994F86E00B8
S3150FE10CF011280CD0B86850B978683968884206D29D
S3150FE10D0001A92046FFF727FFEDE705B0F0BD2078F3
S3150FE10D10810744BF606830602178C80705D51C227A
S3150FE10D2004F10801284600F047FF9DF8001000295D
S3150FE10D3005BF20780028002040F20640E5E770B5B0
S3150FE10D4004460D46202304F5807204F1B80104F13F
S3150FE10D50280000F023FB04F5B876B06850B9706847
S3150FE10D603168884206D229462046FFF7F4FEF4E7BA
S3150FE10D70002070BDA07800281CBFE0780028F7D0CE
S3150FE10D80012070BD18B50C4AE3B013689C688C421C
S3150FE10D9002D200F018F808B1002008E05FF0020077
S3150FE10DA000F00CF818A100F007FF00F010F864B09E
S3150FE10DB010BD00008808E10F2808E10F8DF811003A
S3150FE10DC01022684670474FF4BE7204A933E76946AD
S3150FE10DD004A8B4E700B5E3B0FFF7F5FF08B10020CB
S3150FE10DE007E00120FFF7EAFF0BA100F0E5FEFFF7B1
S3150FE10DF0EEFF63B000BD000000000000B30CE10F91
S3150FE10E00B30CE10FB30CE10F00000000000000008E
S3150FE10E1000000000B70EE10F000000009B0EE10F8E
S3150FE10E20000000000000000000207047002070471E
S3150FE10E3006480168086970470548064A006801686F
S3150FE10E40914201D100697047002070472808E10FF0
S3150FE10E502800E10FAD1007B001207047F8B5044641
S3150FE10E60E00A0D461646B4EBC02004BF204600F05B
S3150FE10E70AFFE04F50067FF0AFF0204E0384600F013
S3150FE10E80A7FE07F5006730198742F7D332462946A1
S3150FE10E902046BDE8F84000F0D4BE38B5664B1B6876
S3150FE10EA01C69A04222BF5B691518AB4202D3BDE8AC
S3150FE10EB03840D3E731BDF8B504466048604B0D467F
S3150FE10EC0016816460A689A4217D1FFF7B5FF271848
S3150FE10ED0F0195C49884210D24CB9FFF7ADFF56497C
S3150FE10EE009684A6990423CBF086900F071FE3246D3
S3150FE10EF029463846BDE8F840B0E7F1BD7FB504466F
S3150FE10F004FEA0D0051A1102200F056FE0020464295
S3150FE10F100DEB0605225CE97B914205D1401C1028B9
S3150FE10F20F5D3012004B070BD0020FBE758B50446A8
S3150FE10F3022686068616B02F16042B2F1011F2CD247
S3150FE10F403D4A13681A69904227D33E4B984224D201
S3150FE10F50403291420E4601D3994205D300F042FF4A
S3150FE10F60401E8041C00F52BD00F03CFFB8B930467C
S3150FE10F70FFF7C4FFB8B1307C02280ED2706990B189
S3150FE10F8002280CD1B069001D011B4FF0FF3220463C
S3150FE10F9000F02AFF2C49884205D0002052BD204699
S3150FE10FA0BDE8524001E0012052BD38B505469CB07F
S3150FE10FB06C6B2046FFF7A2FF30B1606901280DD1B6
S3150FE10FC0207C02280AD2A4691B4801680A69944267
S3150FE10FD028BFAC4202D31B48844201D300201AE05A
S3150FE10FE001A800F01BFF621B294601A800F020FFB4
S3150FE10FF001A800F01FFFFFF751FD0546FFF74CFD76
S3150FE110000346009504F12002214601A800F016FFE0
S3150FE11010401E8041C00F1DB030BD80B54FF0FF328D
S3150FE1102000F0E2FE084B984204BF40F2092000F0BF
S3150FE1103051FF002002BD00002808E10F2800E10F53
S3150FE11040AD1007B001000800E320BBDEB814B6F11E
S3150FE11050E0CFF3ADB7DD25C9FA79B7132CA0704709
S3150FE11060002070472748006800F00100704710B56F
S3150FE110700B461118244CA14205D20146184600F041
S3150FE110809BFD002010BD40F2024010BD38B513188C
S3150FE110901D4DAB4240F202440BD2002300E01B1D73
S3150FE110A0934208D21D5815F1010FF8D040F20340D3
S3150FE110B032BD204632BD00F0C4FD0028F9D0002034
S3150FE110C032BD70B505460C46600501D1690502D002
S3150FE110D040F2044070BD60190B49884240F2024666
S3150FE110E003D300E008B9304670BD284600F070FD25
S3150FE110F0B4F5006405F50065F4D10028F3D00020BE
S3150FE1110070BD00001C000E40010008000020704772
S3150FE11110010203002800000028000000000800007B
S3150FE11120000008008008E10F020000002DE9F843F6
S3150FE111301E467368002B4ED00C4614F0030118BF00
S3150FE1114041F2020048D115460746FFF771FE396EA7
S3150FE11150001D6A18824221D300F1180399421DD26C
S3150FE111608C46844538BF844605EB010800F1180229
S3150FE11170904588BF9046ACEB0101ACEB000004EB68
S3150FE111800109A8EB0C08384442464946683000F09D
S3150FE1119013FDFF224146484600F0D2FEFFF74CFE13
S3150FE111A0396E001D884222BF6A18031D9A4209D380
S3150FE111B0411A601807F1800102680A600421FF22D3
S3150FE111C000F0BEFE21463368386E74682A46A047A2
S3150FE111D0386E2D183D660020BDE8F28370B54B6879
S3150FE111E08C689C4206D200F140021B1B14781B1936
S3150FE111F0412B01D3002070BD537814780D68E418A4
S3150FE112008B68EE5C04F03F0406558C68641C8C60B9
S3150FE1121013785B1C13708C684B689C42ECD30120EE
S3150FE1122070BD90F840004A6889681018401A7047F7
S3150FE112302DE9F0410C4617461D468046FFF7F1FFB3
S3150FE11240A84208F1400606D221464046FFF7C6FFFF
S3150FE1125010B300204DE000210CE0707818F8002063
S3150FE112607A54491C737830785B1C03F03F03421EB6
S3150FE1127073703270307808B1A942EED3A068626814
S3150FE11280904238BFA9420CD22368185C7854491CA6
S3150FE11290A268521CA260F1E71220B07141F202007E
S3150FE112A027E0A942F8D1069CB26C2946384600F0F0
S3150FE112B09BFDB06424B1F0682A46394600F0B8FDCB
S3150FE112C0079838B1F07878B1B0682B463A46394687
S3150FE112D000F062FEF07838B1F069B1692818F06173
S3150FE112E0884224BF0020F07070692D18756141F2B4
S3150FE112F00300BDE8F081F8B584B014460026054633
S3150FE1130001960096082302AAFFF792FF41F2030620
S3150FE11310B0423CD195F8430005F1480738B100F0EA
S3150FE1132038F83868082302AA02A900F035FE9DF8BD
S3150FE113300A209DF80B009DF80910120442EA00629B
S3150FE113409DF8080042EA0122024322609DF80E0051
S3150FE113509DF80F10000440EA01609DF80D1040EA78
S3150FE1136001209DF80C100843606095F8430048B9D9
S3150FE11370DFF864178A421CBFDFF86007824201D0AB
S3150FE1138000F007F86068B8600021F960304605B0F3
S3150FE11390F0BD7868082202A900F04ABDF8B5064605
S3150FE113A006F140070020B8717870F87038710D4674
S3150FE113B000214FF0FF303970797103F02003B864E3
S3150FE113C0396279621446BB70FF22182106F1680073
S3150FE113D000F0B6FDFF22042106F1800000F0B0FD1A
S3150FE113E0FF22042106F1840000F0AAFDBD60FC6036
S3150FE113F0FFF71CFD00B11DB1FFF716FD18B114B9CA
S3150FE1140041F20B00F2BD14B1F86800F007FD0020C0
S3150FE11410F2BD00002DE9FB4F824600210023002497
S3150FE114209AB005A880E81A00059209910AF14806D3
S3150FE114301C9A269D06920AF1420710E000F076FB10
S3150FE114400899884233D10498B0600021F16003987E
S3150FE11450DFF88C16884240F0438102223A710798F1
S3150FE114601C99884280F0D08241F2030208920DF175
S3150FE11470280839791229F2D8DFE811F0140015009E
S3150FE11480CA02320109030B03E40254010B034F01B4
S3150FE114900B034F012102C3020E0397029A02D401F5
S3150FE114A0C302DCE7CAE700F041FB0899884240F046
S3150FE114B0AC82B87820B10398DFF82016884246E06F
S3150FE114C03A78D1074DD5787800284AD10398DFF8D5
S3150FE114D0101688421CBFDFF80C16884225D0DFF8BC
S3150FE114E0081688421FBFDFF804168842DFF8001698
S3150FE114F088421AD0DFF8FC15884222D0DFF8D815DA
S3150FE11500884265D0DFF8F015884213D0DFF8EC1585
S3150FE1151088420DD0DFF8C415884215D0DFF8E01503
S3150FE1152088421CBFDFF8DC15884200F0D98010E055
S3150FE115300E2293E70F2038710020B1683161706197
S3150FE115408DE71221397166E0FFF76EFC00283DD178
S3150FE1155038E01220387103A800F02DFD00285AD08B
S3150FE11560A7E20398DFF8801588421AD0DFF87C15D9
S3150FE11570884214D0DFF87815884215D0DFF8581570
S3150FE11580884221D0DFF85415884214D0DFF8701560
S3150FE1159088420ED0DFF86C15884208D01AE0042293
S3150FE115A05CE7062038715AE70721397157E70920B9
S3150FE115B0F8E70B21F9E7FFF737FC002804BF787846
S3150FE115C0002803D10C21F0E77878002840F08880D5
S3150FE115D01021EAE703A800F0EEFCA8B103987064C6
S3150FE115E011213971039800F0E8FC099038788106EA
S3150FE115F0DCD5099800281CBF41680029D6D0504692
S3150FE1160088470028D2D054E212217878397110B187
S3150FE1161041F20400F9E141F20800F6E198F805001C
S3150FE1162098F8041041EA00210291C90704D53878E8
S3150FE1163040F00100387002E0FFF7F8FB40B9FFF721
S3150FE11640F3FB002800F0E6810298C10500F1E28183
S3150FE116501220387141F20A00D7E10520F978387185
S3150FE1166041F00101F9700020F061F068082880F07F
S3150FE116701C8201210191009100F05DFA08998842DF
S3150FE11680EAD12078DFF8803440F00200207098F834
S3150FE11690020098F803109DF82820000440EA016043
S3150FE116A098F8011040EA012010436060DFF85C14FE
S3150FE116B0B06808386062086802689A42CDD198F836
S3150FE116C0062098F8071098F80430C068120442EA29
S3150FE116D0016298F8051042EA01221A438242BCD010
S3150FE116E012213971E5E1012000F018FA08998842D3
S3150FE116F0B2D198F8021098F803009DF82820090452
S3150FE1170041EA006198F8010041EA00211143029193
S3150FE11710B068052824BF0298B061F0680428E2D3C7
S3150FE117200A2142E70020F06108213EE72B68F069C4
S3150FE1173042460AA9E047F0694044F061B068F168B2
S3150FE11740814280F0AF81A0EB0108B8F1040F05A942
S3150FE11750504608D3FFF765FD042808D205A9504680
S3150FE11760FFF73CFD50E1FFF75CFD4045F6D3B8F1DD
S3150FE11770410F28BF4FF0400800F0CCF9404502D2A7
S3150FE1178000F0C8F98046B8F1040F24BF4FEA98007C
S3150FE117904FEA8008012001900090434600F0C1F91D
S3150FE117A00899884240F031813879082804D1D5F873
S3150FE117B008C0BCF1000FB9D1B8F1040FC8F1040BA1
S3150FE117C006D20AA8FF225946404400F0B9FBD84495
S3150FE117D038790A2806D12B4642460AA95046FFF721
S3150FE117E0A5FCABE70528A9D199F801008107A5D595
S3150FE117F0E8680028A2D0F06905280ED208EB0001AF
S3150FE1180007290AD30AA9091D081A0AF184020168F0
S3150FE118101160FF22042100F093FB2B68F069D5F8E4
S3150FE118200CC085E73978880640F14181706C00F08C
S3150FE11830C4FB0028099040F03A813AE14FF00109E3
S3150FE1184000F068F9484589D3B068F168A0EB010962
S3150FE11850B9F1410F28BF4FF0400900F05BF981451F
S3150FE1186002D300F057F981460120019000904B46D3
S3150FE1187000F057F9089988422FD1387881060DD5AE
S3150FE11880002C1CBFD4F808C0BCF1000FD5D02B46F5
S3150FE118904A460AA95046E04700281ED1F068B168CA
S3150FE118A0884280F0098138788106C7D5002C1CBFA4
S3150FE118B021690029C2D0504688478146C0E70020FA
S3150FE118C000F02CF90899884207D1306C904988428B
S3150FE118D004D012223A7141F2050096E0FFF7A4FA1D
S3150FE118E018B91B990120C87003E01B99C878002825
S3150FE118F03FD0F87810F0030F1CBFEC68002C05D031
S3150FE119002B6804220AF184010420A047B06900285C
S3150FE119101CBF686800282CD04FF0FF3102910AF105
S3150FE1192080040422214602A800F04AFB40B1FFF7EA
S3150FE1193083FA28B121462B686C680422001DA04763
S3150FE1194004220AF1680102A800F03AFB88B1FFF719
S3150FE119506FFA2B686C6814220AF16C010830A04704
S3150FE11960FFF766FA2B686C6804220AF16801001D1D
S3150FE11970A0471B99012088700D20387144E00020A3
S3150FE11980012101900091102300F0CBF808998842CC
S3150FE119903BD1FFF785F88021009001910123306853
S3150FE119A00BAA022100F0D5FA78E00120787026E043
S3150FE119B0B87820BB002101910090402300F0B1F8E7
S3150FE119C00899884221D1706800F034FAFFF766F87A
S3150FE119D00446FFF761F800940346706812AA0AA954
S3150FE119E000F02CFA38B11B990020C870122038711B
S3150FE119F041F2060009E01B990120C870B870012178
S3150FE11A00D3E541F2070000E000201DB0BDE8F08FFD
S3150FE11A10DDF86C90F068082844D20021012001918D
S3150FE11A20009000F088F808998842EED198F8030003
S3150FE11A300006B0F1407F3FF4F1AD1220387141F26B
S3150FE11A400900E2E7DDF86C90B368F068984229D2B5
S3150FE11A5001210191009100F064F808998842D4D1EF
S3150FE11A601C220AA909F1080000F0A6F899F800006E
S3150FE11A7040F0010089F8000009F10800FFF7ECF9E1
S3150FE11A800028E1D11220387141F20C00BDE71B9C11
S3150FE11A90EBE5DDF86C9051E6DDF86C90F068102817
S3150FE11AA0FFF46DAFCDF86C90A9E71B94D7E4099CD1
S3150FE11AB0F4E641F20100A8E70994387881069ED54C
S3150FE11AC0002C1CBFE268002A99D029465046904760
S3150FE11AD000289AD193E70000F70A0AF7FC0404FC01
S3150FE11AE0EB17A603EB17A65EF40A0AF4F50909F557
S3150FE11AF0F60808F6F70909F7F90707F9FA0606FAF4
S3150FE11B00FD0303FDFE0101FEAD1007B02800E10F55
S3150FE11B10E320BBDE05A95046FFF783BB019000909A
S3150FE11B2004230AAA05A95046FFF782BB03AA05A912
S3150FE11B305046FFF7E0BB08230AAA05A95046FFF76F
S3150FE11B4077BB10B5B1F5BE7F044602D240F2052050
S3150FE11B5010BD4FF4BE7100F02BF80020607004F554
S3150FE11B60807204F1B80104F12800BDE810400023AA
S3150FE11B70FFF714BC1CB500910446214604F1280079
S3150FE11B80FFF748FC00281CBF41F207018842C4F861
S3150FE11B9078010BD1A07838B1E07810B140F203208B
S3150FE11BA016BD40F2022016BD40F2012016BDFEE73A
S3150FE11BB0002200F015BAFEE74AB1000011F8013B29
S3150FE11BC0521E00F8013B1CBF11F8013BF8E77047C5
S3150FE11BD010B53B4C41F67131A163226852085200B0
S3150FE11BE0226000F0C4FA22685208014652002260D0
S3150FE11BF00020A063481E8041C00F10BD38B5830891
S3150FE11C00800705D54FF6FF7242EA0142009204E0E2
S3150FE11C1041F07F4141F47F01009141F67130284C4B
S3150FE11C20A063042225686D086D002560694698005A
S3150FE11C3000F0E0FA22685208520022600021A16307
S3150FE11C4032BD2DE9F04105468846144605F00101FE
S3150FE11C5004F00100014330D16CB3AA0707D538F878
S3150FE11C60021B2846FFF7CAFF38BBAD1CA41E042C86
S3150FE11C701AD3134E41F67130B063A708316849089C
S3150FE11C8049003160BF003A464146284600F0B2FAB4
S3150FE11C90316849084900316000227908B26308EBDF
S3150FE11CA041087D19E41B40B92CB1B8F8001028465C
S3150FE11CB0FFF7A4FF08B9012000E00020BDE8F0819D
S3150FE11CC008000E404FF4017000F004B980B53C48AE
S3150FE11CD001214164026842F480720260684600F0B5
S3150FE11CE093FA9DF801000128DCBF9DF80000022858
S3150FE11CF009DD3448344A354B4FF4187101604260BF
S3150FE11D0043663349C16640213248C16002685103D7
S3150FE11D10FCD400F093FA00F0D8F8FEF7CCFE48B900
S3150FE11D2040F2012000F0D6F84FF4017000F0D2F83E
S3150FE11D30002002BD284901E00099491E0091009952
S3150FE11D400129F9DA40F205429042EDD140F2032042
S3150FE11D50ECE7000038B521480168012401254A0561
S3150FE11D600CD500F0D9F840F20221401A04D0C01E7A
S3150FE11D7002D0C01E012801D80024002504200168E5
S3150FE11D8011F1010F06D1BDE832404FF4027000F0B8
S3150FE11D9095B831BD25B10020FFF7C8F80400F2D0A0
S3150FE11DA0002CF6D00E49002008600022104601688B
S3150FE11DB081F3088881F3098840688746FEE70000CA
S3150FE11DC000000E408C420E409A6F05001801000488
S3150FE11DD00084320804300E4000350C0004500E40EA
S3150FE11DE008ED00E00020704730B50A4B1C6844F05F
S3150FE11DF040041C600125084B1D609A605D6002E09E
S3150FE11E0010F8014B9C610A46511E002AF8D1D86998
S3150FE11E1030BD00BFB0400E4000C0014010B50446D2
S3150FE11E2000F0CEFA2046BDE81040002100F0F8BAE6
S3150FE11E3000F0F8BA014600F0F6BAFEE72DE9F841EF
S3150FE11E4006000D4618BF002DA1B01446984606D0E0
S3150FE11E50002C18BFB8F1000F01D0289F17B940F237
S3150FE11E60016023E00121134800F022FB402111A874
S3150FE11E70FFF79EFE414611A800F007FE394619A865
S3150FE11E8000F003FE01A84021FFF792FE294601A8C3
S3150FE11E9000F0FBFD214609A800F0F7FD01A800902F
S3150FE11EA011AB20223146044800F0FEFD22B0BDE819
S3150FE11EB0F08100BF00050A0000000F404FF000510E
S3150FE11EC008804FF20F00488070470F494CF23C30C3
S3150FE11ED0088070474FF0005108804FF20F0048809D
S3150FE11EE00A48016821F4E06141F480610160BFF3C2
S3150FE11EF04F8F074907480A6802F4E06202430A6016
S3150FE11F00BFF34F8F00BFFDE70200002000500E40E8
S3150FE11F100CED00E00400FA054FF000514FF20F020D
S3150FE11F204888904201D108887047002804BF088885
S3150FE11F30012802D140F2022070474FF4007070473A
S3150FE11F404018491C1CBFB1F1010100F8012DF9D16F
S3150FE11F5070472DE9F843089D099F80460E46914645
S3150FE11F601C4600F05BFF3A462946404600F05CFF0F
S3150FE11F7008F124000021016006750C22494608F19B
S3150FE11F803900FFF719FE08F14500210C220A84708A
S3150FE11F9001704270BDE8F1833EB5029201911C4694
S3150FE11FA000F12805009500F1380300F124022146DE
S3150FE11FB000F05EFF37BD0020704700207047FEE757
S3150FE11FC003000020521E22BF13F8010B11F801CBBB
S3150FE11FD0B0EB0C00F6D0521C08BF10467047FEE777
S3150FE11FE000B500BF130096469446103928BFA0E806
S3150FE11FF00C50FAD85FEA417C28BF0CC048BF40F8C5
S3150FE12000042BC90728BF20F8022B48BF00F8012B84
S3150FE1201000BDFEE710B57A497A4A01E021B1491EC2
S3150FE120201369DC07FAD411B96FF0020010BD5060E5
S3150FE12030012010601169480702D54FF0FF3010BD3E
S3150FE12040002010BD2DE9F041044610460B46002253
S3150FE12050002B41D06FF001056FF002086849694F17
S3150FE12060A8B994469C4537D254F8040BF8600CF1A5
S3150FE12070010C08203860084601E080B3401E3E6936
S3150FE12080F607FAD458B338698007EBD523E0EFF3B7
S3150FE12090108072B694460FE03E6906F01906102ECF
S3150FE120A008BF3E603E693607F6D554F8046BFE600D
S3150FE120B00CF1010C10263E609C45F3D318B962B6BC
S3150FE120C001E021B1491E3869C307FAD401B9424685
S3150FE120D03869810700D52A461046BDE8F0814246A8
S3150FE120E0FAE72DE9F84F454CA56BADB205B10125E0
S3150FE120F041F67136A6634FEA92083F4E3768366866
S3150FE12100266846F0010626604FF0000906468A4624
S3150FE121109B46002013E0C7F30A07C7F50067BF0820
S3150FE12120A8EB0900B84238BF07465A46394650462A
S3150FE12130FFF788FF010010D1B9440AEB870AC145C1
S3150FE121400BD206EB89073846FFF764FF0100E2D0B1
S3150FE12150216849084900216003E0226852085200CC
S3150FE121602260EDB20DB10021A163BDE8F28F70B52A
S3150FE12170224B23490246986B80B200B1012041F60A
S3150FE1218071349C631C4C256824681E6846F0010671
S3150FE121901E609A6001225A605C69620704D500F0FD
S3150FE121A021F84FF0FF3070BD02225A605A69D40709
S3150FE121B010D5002918BF491EF8D10BE0002919687F
S3150FE121C004D100F010F86FF0020070BD00F00BF8CB
S3150FE121D0002070BD5A699407F0D500F003F86FF04F
S3150FE121E0010070BD196849084900196008B100205E
S3150FE121F098637047002374E704300E4008000E40E1
S3150FE12200809698000C000E4010B50B4A5168136882
S3150FE122108C0004F03C04C3F381110C438470116804
S3150FE1222001F03F0141709368D16803F0F003C1F308
S3150FE1223003110B43037010BDE0FF0FE0FEF710BF74
S3150FE12240FEF764BF2DE9F84F022883461FD8140025
S3150FE1225055D00B9AD2F800C0BCF13F0F984618D86B
S3150FE122605068002818BF5FEA080A13D1BBF1000FC7
S3150FE1227004D0BBF1020F07D003D308E00FF2B01A77
S3150FE1228008E00FF2CC1A05E00FF2E41A02E04A4831
S3150FE1229036E0C2460CF03F06A444A445C6F140051C
S3150FE122A0C2F800C002D25068401C506089460A9FAE
S3150FE122B08EB1AC420FD32A46B819FFF77DFC012048
S3150FE122C0009043463A465146584600F096FEC246BE
S3150FE122D0A944641B00263F2C0BD9A509009543465B
S3150FE122E04A465146584600F088FE09EB8519A4EB9C
S3150FE122F0851424B122464946B819FFF75DFC002043
S3150FE12300BDE8F28F2DE9F8430446200086B08846F2
S3150FE1231016461F4603D0022C30D02DD330E01425BC
S3150FE12320002100200DF1080C4242920057F82030AF
S3150FE12330D21D01EBC3010CF8021002A9114457F8A3
S3150FE123402020C91E52098A7057F82020520B4A7075
S3150FE1235057F82020520D0A7057F82010490F401CEC
S3150FE123600128E1D93A7802F03F02382A34BFC2F1A7
S3150FE123703802C2F1780205E01C25D1E72025CFE727
S3150FE123800D4816E0DDF838900C4901970096434663
S3150FE123902046FFF757FF019700964346082202A909
S3150FE123A02046FFF74FFF2A4641464846FFF704FC12
S3150FE123B0002007B0BDE8F08380AFFFFF4008E10FD3
S3150FE123C000281CBF6C21FFF7F3BB704700220029E1
S3150FE123D00260CCBF01210021426080F86810002025
S3150FE123E070473EB590F868300190002B14BF012479
S3150FE123F0022400F1280500F1080300952046FFF7B6
S3150FE1240021FF3EBD80B5034603F1280293F868002C
S3150FE124100091002814BF0120022003F1080103E017
S3150FE12420D4E70000DDE7EDE7FFF76CFF02BD000043
S3150FE1243067452301EFCDAB8998BADCFE10325476AE
S3150FE12440C3D2E1F000000000000000000000000030
S3150FE12450C1059ED8367CD5073070DD17F70E593991
S3150FE12460FFC00B316858151164F98FA7BEFA4FA457
S3150FE124706A09E667BB67AE853C6EF372A54FF53A1F
S3150FE12480510E527F9B05688C1F83D9AB5BE0CD194B
S3150FE12490890001EB401101F184410A607047DFF8D1
S3150FE124A074104A68D30702D40A680242FCD1704716
S3150FE124B070B50C460246110A01F00F010020491EC4
S3150FE124C00929DFF8545013D8DFE801F0051312128A
S3150FE124D0071518121B1FDFF83850C2F3043608B17F
S3150FE124E0FFF7DDFF224631462846BDE87040CFE7CC
S3150FE124F070BD1035F1E730350120EEE738351020A4
S3150FE12500EBE740354FF48030E7E7DFF81050E4E7CB
S3150FE1251000400E4040410E40B0400E4050410E404B
S3150FE1252010B50A684B688C68C9680260036004607D
S3150FE12530016010BD10B502680368046800680A609F
S3150FE125408C604B60C86010BD38B504460D46FFF789
S3150FE12550E7FF05F110012046BDE83440E0E738B565
S3150FE1256004460D46FFF7E6FF05F110012046BDE8EB
S3150FE125703440DFE7082250F8041B21B9521EFAD185
S3150FE125800020C0B270471000FBD00120F9E7F8B583
S3150FE1259000F065F90746294604F58470FFF7D4FF85
S3150FE125A0314604F58670FFF7CFFF00F06BFADFF8DF
S3150FE125B0E8062065012161656069000E00F0010002
S3150FE125C080F00100F2BD2DE9F84F88B004460D46C3
S3150FE125D092461E4600F0ACFD834604F5827705F17F
S3150FE125E0400100F03AF904F58678514600F02AF9F0
S3150FE125F004F588790AF120014846FFF7A5FF00F0B7
S3150FE126001DF900F038FAA065E16504F5847A00F06A
S3150FE126108FFD8346294600F020F905F1200100F0F0
S3150FE1262018F905F140014846FFF78EFF00F006F96C
S3150FE12630DFF86806DFF86816206561650120A06599
S3150FE1264004F5807900F074FD834606F1400100F050
S3150FE12650F3F869465046FFF782FF00F0EFF800F016
S3150FE1266067FD834600F0EDF800F0E8F8DFF8340691
S3150FE12670DFF83416206561650121DFF8300600F0D9
S3150FE12680E3F8804600F0E7F800F02EF9DFF82006D0
S3150FE12690DFF8201600F021F8054631465046FFF7E0
S3150FE126A05EFF284600F048FD00F042FD054669460B
S3150FE126B03846FFF749FF284600F03EFDDFF8F805FB
S3150FE126C0DFF8F81500F009F8044600F0B3F82046F4
S3150FE126D000F032FD09B0BDE8F08F2065616501209C
S3150FE126E0A06500F025BD2DE9F84F98B000F0B7F8D9
S3150FE126F0804604F5827700F0AEF800F0F5F8DFF8E2
S3150FE12700C005DFF8C0152065616504F58078DFF84F
S3150FE12710B805FFF7E5FF814608A94046FFF71FFF1A
S3150FE12720484600F009FD00F003FD814600F089F807
S3150FE12730484600F001FDDFF89405DFF894152065B2
S3150FE1274061654FF48670A06504F5867900F0F0FCBB
S3150FE12750824610A94846FFF702FF69464046FFF752
S3150FE12760FEFE504600F0E8FC00F0E2FC824605F181
S3150FE12770400100F072F8504600F0DEFCDFF8540538
S3150FE1278020650121616504F5847A00F0D1FC834669
S3150FE12790294600F05EF800F051F8DFF83C05DFF866
S3150FE127A03C15206561650121DFF8340500F04CF831
S3150FE127B0834669465046FFF7C7FE10A94846FFF71D
S3150FE127C0C3FE00F03BF8DFF81C05DFF81C152065AA
S3150FE127D06165DFF81805FFF783FF8346314604F598
S3150FE127E08870FFF7BCFE00F029F800F0A1FC8346E4
S3150FE127F000F031F805F1400100F02BF808A9484641
S3150FE12800FFF7A2FE00F01AF8DFF8E404DFF8E414AC
S3150FE128102065616500F08CFC044606F140014046F7
S3150FE12820FFF79DFE00F006F8204600F085FC19B093
S3150FE12830BDE8F08F06F12001484690E6584600F0D4
S3150FE128407BBC294640467FE6A065E16500F070BC9A
S3150FE128502146504678E605F12001384674E60446EE
S3150FE128600D46164600F064BC2DE9F04105460E46CD
S3150FE128701C46174620212046FFF79AF901222260CE
S3150FE1288000F056FC8046394605F58070FFF75CFE91
S3150FE12890314605F58270FFF757FE05F58476214639
S3150FE128A03046FFF751FE00F01FF8DFF84C042865BC
S3150FE128B00BE0DFF84814DFF8480429656865DFF8AF
S3150FE128C04414DFF84404A965E8656869C101F0D5E8
S3150FE128D000F02EFC054621463046FFF740FE28461E
S3150FE128E0BDE8F04100F028BC404600F025BC50F8A9
S3150FE128F0043B934203D007E050F8042B22B9091F9A
S3150FE129000129F9DA01207047002070472DE9F041DE
S3150FE1291088B004460D461646984620216846FFF7CD
S3150FE1292047F90122009220214046FFF741F9202184
S3150FE1293008F12000FFF73CF9202108F14000FFF7ED
S3150FE1294037F90521204600F0FBFB002020602063CC
S3150FE129506063FF2700F040F802D47F1E002FF9DCF9
S3150FE12960002F36D4424641462046FFF7BCFE00F023
S3150FE1297033F82CD5002220214046FFF7B8FF00B3EC
S3150FE129800022202108F12000FFF7B1FFC8B1002294
S3150FE12990202108F14000FFF7AAFF90B12022294636
S3150FE129A04046FFF709F9202205F1200108F1200041
S3150FE129B0FFF702F92022694608F14000FFF7FCF81C
S3150FE129C005E043462A4641462046FFF7FCFD7F1EBA
S3150FE129D0C6E708B0BDE8F081381107EBD0604011CA
S3150FE129E056F82010A7EB4010C140CA0770472DE9F2
S3150FE129F0F0410F4690B004461546052100F0A0FBC5
S3150FE12A00002222602263626368462022DFF8FC120D
S3150FE12A10FFF7D2F808AB6A4607F140012046FFF708
S3150FE12A2023FF00F085FB804608A904F58270FFF7C6
S3150FE12A308BFD04F5867639463046FFF785FD07F1BE
S3150FE12A40200104F58870FFF77FFDFFF74DFF00F0DA
S3150FE12A5012F8FFF7F9FE074605F1200104F580703C
S3150FE12A60FFF77DFD29463046FFF779FD00F00AF8BD
S3150FE12A7010B0BDE8F0819248A54920656165012155
S3150FE12A80A4487047384600F057BB38B50D460446A3
S3150FE12A902021FFF78DF8FFE71F204242295C2244F0
S3150FE12AA0401ED177F9D531BD2DE9F04FB9B00646C4
S3150FE12AB00D461746DFF860821C4621A84146602283
S3150FE12AC0FFF77AF809A808F160016022FFF774F8B9
S3150FE12AD03DB1009420001CBF429C002C01D0002F79
S3150FE12AE002DC40F20160D3E00020306030637063B6
S3150FE12AF00C217068DFF8248240F0100070603046D8
S3150FE12B0000F01EFB706820F4406040F400607060D6
S3150FE12B102022706820F4407040F40070706008F174
S3150FE12B202C0111A8FFF748F811AA21463046FFF705
S3150FE12B302EFD78B92046FFF71DFD58B111AA04F114
S3150FE12B4020013046FFF723FD20B904F12000FFF7FE
S3150FE12B5011FD10B940F202609AE0202FC8BF20277D
S3150FE12B60202119A8FFF724F8002014E03A1A521E83
S3150FE12B7009A99208A7F1010E01EB8201AEEB000E56
S3150FE12B802B5C0A6C4FEACE0E0EF0180E03FA0EF31B
S3150FE12B901A430A64401CB842E8DB00F0C9FA07465B
S3150FE12BA006F5847519A92846FFF7CEFCFFF76AFFEC
S3150FE12BB05B48306506F5807700F0BAFA814619A9C8
S3150FE12BC03846FFF7CCFC484600F0B6FA01AB11AA3E
S3150FE12BD004F120013046FFF747FE00F0A9FA8346DC
S3150FE12BE001A906F58270FFF7AFFC06F5887919A9F9
S3150FE12BF04846FFF7A9FC06F5867AFFF729FEFFF7A8
S3150FE12C001DFE484848493065716500F091FA8346E3
S3150FE12C1019A94846FFF7A3FC01A93846FFF79FFC20
S3150FE12C20FFF70CFE21AB19AA08F14C013046FFF76D
S3150FE12C306DFE009909AB01AA3046FFF767FE21AA9F
S3150FE12C4021A93046FFF7D3FE09AB21AA09A93046E0
S3150FE12C50FFF7B9FC09AA09A93046FFF7C8FE00F04C
S3150FE12C6067FA07460C21304600F06AFA09A92846A9
S3150FE12C70FFF76AFCFFF7ECFDFFF704FF2B4822494C
S3150FE12C80306571657069C1014CBF002040F2046087
S3150FE12C9039B0BDE8F08F00003035DA10D01482CBB1
S3150FE12CA01481E11C8CE11C811C84D91C8391D11CFC
S3150FE12CB0E014D8141482E11C84D31482D11CE014DD
S3150FE12CC08AD11C81821CC00C0C0C0100C00C0C8338
S3150FE12CD0D91C83D88AD11C83DA0C811482D11C8149
S3150FE12CE0C80C0C818CE11CD01484E31482D11C0135
S3150FE12CF0D81483D11CC00C0139398401D02484FC4A
S3150FE12D001C82FED88B1C81A0393801006409E10FC2
S3150FE12D10D91C83D11C81E11C9808E10F5809E10FF9
S3150FE12D2030D00C0130E11C8430D91C013035DA1476
S3150FE12D30890001EB401101F184410A60704710B53A
S3150FE12D400A684B688C68C9680260036004600160B9
S3150FE12D5010BDF4E710B502680368046800680A60FD
S3150FE12D608C604B60C86010BD38B5102A04460D461D
S3150FE12D700DD101220021FFF7DBFF04F58874294607
S3150FE12D802046FFF7DCFF05F11001204606E00022A1
S3150FE12D900021FFF7CDFF294604F12400BDE83440B9
S3150FE12DA0CDE71FB50C4614F0030108D06946FFF7CE
S3150FE12DB0D1FF102269462046FEF7FEFE1FBD2146D2
S3150FE12DC0FFF7C8FF1FBD1FB5044611F0030008D07A
S3150FE12DD010226846FEF7F0FE69462046FFF7B9FF77
S3150FE12DE01FBD2046FFF7B5FF1FBD38B5044611F0ED
S3150FE12DF0030088B015460CD0082D0CBF10222022F7
S3150FE12E006846FEF7D9FE2A4669462046FFF7ACFF2C
S3150FE12E1002E02046FFF7A8FF09B030BD00281CBF2E
S3150FE12E202421FEF7C5BE704770B505000C4618BFE5
S3150FE12E30002C164602D16FF0210070BD2421FEF75A
S3150FE12E40B7FE802E18BFB6F5807F02D06FF0220055
S3150FE12E5070BD2E60F2082146281DFEF7ADFE00205B
S3150FE12E6070BD594605F180009BE7484600F064B90D
S3150FE12E702DE9F64F83B0002A14BF1468002400270A
S3150FE12E80009000281CBF0F9E002E09D0DDF8408070
S3150FE12E90B8F1000F1CBF0193002B01D00E9810B9AA
S3150FE12EA06FF0210075E0009800680291802818BF45
S3150FE12EB0B0F5807F04D06FF022006AE000F06CF885
S3150FE12EC00298874261D2002CF8D100F054F90546F9
S3150FE12ED0002068604FF4404129604FF0000A00F08E
S3150FE12EE027F981460098016880290CBF0822102234
S3150FE12EF0011D2846FFF779FF019905F18400FFF7D8
S3150FE12F0062FFFFF7B2FF0298A0EB070913E000F0AB
S3150FE12F104EF80AF1010A00F00BF98346F11905F1B2
S3150FE12F20A000FFF750FF08EB0701FFF79BFF58469D
S3150FE12F3000F002F91037BAEB191F15D24820A86035
S3150FE12F400521A960E3E76CB94820A8600521A960CE
S3150FE12F5000F02DF800F0ECF881460E99FFF782FFAD
S3150FE12F60FFF783FF00F018F80298C01BEBD100F0D2
S3150FE12F70DFF88146019905F18400FFF712FFFFF7AC
S3150FE12F8074FF284600F002F99AE7049800B104604D
S3150FE12F90002005B0BDE8F08F0E9AF15D105D41405E
S3150FE12FA008F80710641C04F00F047F1C70472869AA
S3150FE12FB08107FCD40320A8607047FEE710B50A68C5
S3150FE12FC04B688C68C968026003600460016010BDDC
S3150FE12FD010B502680368046800680A608C604B608C
S3150FE12FE0C86010BD38B504460D46FFF7F1FF05F190
S3150FE12FF010012046BDE83440EAE72DE9F84F98B0D5
S3150FE1300006460C4690469A4600F0B5F805461EB1BF
S3150FE13010022E52D051D352E0002028600021696080
S3150FE130200020E864696821F4406169602863686398
S3150FE1303054F8201009BA4DF82010401C0828F7D390
S3150FE1304000F076F8044605F5827669463046FFF7D5
S3150FE13050B5FF04A93046FFF7B1FF204600F06CF843
S3150FE130602F4828650027229C05F5D276A74242D242
S3150FE1307018F0030008EB871906D04022494608A845
S3150FE13080FEF79AFD0DF1200900F052F88346494605
S3150FE1309000F04CF809F1100100F048F809F12001B0
S3150FE130A000F044F809F1300100F040F8584600F01D
S3150FE130B043F81C4828657F1CD8E70420ADE71A487A
S3150FE130C016E000F035F8044651463046FFF78AFF21
S3150FE130D0204600F031F8284600F058F800205AF85B
S3150FE130E0201009BA4AF82010401C0828F7D300200F
S3150FE130F019B0BDE8F08F1AF0030005F58076E0D040
S3150FE1310000F016F8044669463046FFF76BFF204696
S3150FE1311000F012F8202269465046FEF74DFDDAE738
S3150FE13120888AC801070D810180AFFFFF304645E769
S3150FE13130EFF3108072B6704700B962B67047FEE7DB
S3150FE1314042685209042941EA42120AD9491F022962
S3150FE1315005D9C91E032904D9091F022902D842F04C
S3150FE131601002426070470000890001EB401101F146
S3150FE1317084410A60704780B5FFE7012200210C48C0
S3150FE13180FFF7F2FF0B4802BD000000000949884234
S3150FE1319008D1002009A101EBC003002259680448B8
S3150FE131A0E2E7704704498842FBD10120F2E70000CC
S3150FE131B0B0400E4000000F4000040F4000000F40EA
S3150FE131C00000000000040F4001000000044905481B
S3150FE131D008600548026842F4700202607047000019
S3150FE131E008ED00E00008E10F88ED00E02DE9F0437E
S3150FE131F099B004460D4605A85021FEF7D9FC00F01B
S3150FE13200E1F86846FDF796FC039802284FF0FF3682
S3150FE1321009D2002020600120A8423CBF44F820607B
S3150FE13220401CF9D364E0A84238BF40F2045060D3A2
S3150FE13230FDF73EFC804604980C2205A9C768404677
S3150FE13240FDF715FF0028474453D10598DFF86C9138
S3150FE13250484522D00C2205A93846FDF708FF00287C
S3150FE1326047D10598484507D00020A8423CBF44F80E
S3150FE132702060401CF9D33FE0079A05A93846FDF7D0
S3150FE13280F6FE0498C1684046FDF71BFF88BB079A17
S3150FE1329005A94046FDF7FAFE58BB079A05A9404630
S3150FE132A0FDF7E5FE0799324605A8FEF79DFD444970
S3150FE132B0884207D00020A8423CBF44F82060401C5A
S3150FE132C0F9D319E0079810388008A84288BF284635
S3150FE132D0002108AA04E052F8213044F82130491CB4
S3150FE132E08142F8D3A8423CBF44F82060401CF9D391
S3150FE132F0002019B0BDE8F08340F20550F9E7F0B5CB
S3150FE1330099B005460C4605A85021FEF751FC502110
S3150FE1331007910127294E0596069700F053F868465F
S3150FE13320FDF708FC0398A04207D302280AD22868C2
S3150FE13330002818BF10F1010F02D040F204503AE015
S3150FE13340002038E0FDF7B4FB06460498C768BF19BD
S3150FE13350112C28BF1024002008A904E055F82020DD
S3150FE1336041F82020401CA042F8D34FF0FF3002E095
S3150FE1337041F82400641C102CFAD302464C2105A80F
S3150FE13380FEF732FDC04318900498C1683846FDF741
S3150FE1339098FE80B9502205A93846FDF777FE50B958
S3150FE133A00498C1683046FDF78CFE20B9502205A975
S3150FE133B03046FDF76BFE19B0F0BD000039528FE1D3
S3150FE133C0E320BBDE68461421FEF7F2BB30B595B0BC
S3150FE133D00446FFF7F7FF6846FDF7ACFB039D022DA9
S3150FE133E020D3294605A8FFF701FF00281CBF40F2AD
S3150FE133F00551884218D1002005A902E0A2420ED05C
S3150FE13400401CA8420ED251F8202012F1010FF5D13E
S3150FE1341041F82040294605A8FFF771FF04E040F285
S3150FE13420035001E040F2025015B030BD4EF688511F
S3150FE13430CEF20001086840F470000860BFF34F8FC9
S3150FE13440BFF36F8F4FF00070E1EE100A7047000087
S3150FE1345000F00DF8002801D0AFF30080AFF3008044
S3150FE134600020AFF30080FEF731FC00F002F80120F7
S3150FE13470704700F001B800000746384600F002F841
S3150FE13480FBE700002021090326311820ABBEF9E73F
S3150FE1349080B5FFF79BFEFEF75DFCBDE8014000F04E
S3150FE134A000B8AFF30080FFF7C1FFFFF7D1FF0000D0
S30D0FE134B0000000002C6371DD41
S5030331C8
S70500000000FA
